:020000040000FA
:060000008BEF08F0120076
:0600080016EF00F01200EB
:02000E00303090
:030010003030305D
:06001800B9EF00F0120038
:02001E000100DF
:0C0020000E00000076000000050000004B
:04002C00DACFE4FF44
:10003000E2CFDAFFE9CFE4FFEACFE4FFF6CFE4FF57
:10004000F7CFE4FFF5CFE4FFF3CFE4FFF4CFE4FF15
:10005000FACFE4FF00EE00F0140EE80403E3EECF65
:10006000E4FFFBD700EE14F0040EE80403E3EECF48
:10007000E4FFFBD7E652D9CFE6FFE1CFD9FFE65246
:100080009EAA4FD0AE50DF6E0001010E606F62512C
:1000900003E0DFCF61F045D0DF50730A27E0040AA8
:1000A0001FE0430A17E0070A0FE0010A07E0030A0E
:1000B0002CE16169AA0EE66EE6681ED0FD0E616F46
:1000C000AA0EE66EFD0E17D0FE0E616FAA0EE66E4A
:1000D000FE0E11D0FA0E616FAA0EE66EFA0E0BD06C
:1000E000FC0E616FAA0EE66EFC0E05D0FB0E616F72
:1000F000AA0EE66EFB0EE66E2DEC06F0E552E5521A
:10010000AA0EE66E13EC06F00BD0120EE66EE66A4F
:100110000001730E6A6F0F0E6B6F67EC05F0E5520E
:10012000E552E552E552E7CFD9FFE55200EE17F070
:10013000040EE80403E3E5CFEDFFFBD700EE13F078
:10014000140EE80403E3E5CFEDFFFBD7E5CFFAFF9C
:10015000E5CFF4FFE5CFF3FFE5CFF5FFE5CFF7FF00
:10016000E5CFF6FFE5CFEAFFE5CFE9FFE5CFDAFF20
:100170001100D8CFE4FFE0CFE4FFE46EDACFE4FF74
:10018000E652E552E5CFDAFFE550E5CFE0FFE5CFF7
:10019000D8FF1000D9CFE6FFE1CFD9FF060EE12648
:1001A0000001616B606B626B686B696B646B656BA4
:1001B000666B676BFEEC05F0E3EC05F02BEC05F0ED
:1001C0003AEC05F0DE6ADD6AF3EC04F0510EE66EFF
:1001D0001DEC05F0E552280EE66E99EC08F0E552AC
:1001E000020EDB6A030EDB6A020EDBCF14F0030E95
:1001F000DBCF15F0D890155004E6040E145C000E09
:1002000015584DE2040EDB6A050EDB6A020EDBCFE9
:1002100014F0030EDBCF15F0D890155004E6030E52
:10022000145C000E155802E2E66A02D0010EE66E7A
:10023000E5DBE552146E156AD950040FE96EDACF8A
:10024000EAFF1450EE121550ED12040EDBCF16F03B
:10025000050EDBCF17F0080E086E096A020EDBCF21
:100260000DF0030EDBCF0EF0E9EC07F0065016C0E0
:1002700014F017C015F005E0D89014361536E804D0
:10028000FBE1D9CFE9FFDACFEAFF1450EE121550A7
:10029000ED12020EDB2A030EA7E3DB2AA5D764C00A
:1002A000E6FFDECFE6FFDDCFE6FF4ED9E552E552B1
:1002B000E5520001646F605101E184D7606B61C059
:1002C000E6FF02D8E5527ED7D9CFE6FFE1CFD9FFCE
:1002D000060EE1260001625101E1CBD0DE6ADD6A43
:1002E000FE0EDB500D080DE0760E6625E96E000E61
:1002F0006721EA6EFE0EDBCFEFFF662B000E672351
:1003000019D1010EF36E040EF3CFDBFF050EDB6A8D
:1003100066C014F067C015F01406000E155A020EE0
:1003200014C0DBFF030E15C0DBFF020EDBCF14F0A1
:10033000030EDBCF15F00001800E15146EE1020EE6
:10034000DBCFE9FF030EDBCFEAFF760EE926000ED6
:10035000EA22EF5039080FE3020EDBCFE9FF030E6C
:10036000DBCFEAFF760EE926000EEA22EFCF14F08B
:10037000300E145C1AE2180EE66EE66A00015A0EA0
:100380006A6F0F0E6B6FA3DBE552E5520C0EE66E43
:10039000E66A00014D0E6A6F0F0E6B6F98DBE55237
:1003A000E5520001666B676BC5D0020EDBCFE9FF3B
:1003B000030EDBCFEAFF760EE926000EEA22EF50AD
:1003C000D00F166E176A040EDBCF08F0050EDBCFD8
:1003D00009F016C00DF017C00EF0E9EC07F007C0E9
:1003E00015F0D9CFE9FFDACFEAFF0650EE26155017
:1003F000ED22D950040FE96EDACFEAFF0A0EEC02C3
:10040000F3CFEDFFEF02F3CFEEFFF450ED26020E37
:10041000DB06030E8AE2DB0688D70001666B676B9A
:10042000DECF14F0DDCF15F0153418E21450640857
:10043000000E155413E2270EE66EE66A0001260E42
:100440006A6F0F0E6B6F43DBE552E5520C0EE66EE2
:10045000E66A00014D0E6A6F0F0E68D0DECF14F011
:10046000DDCF15F01450E66E9DDAE5520001626BA7
:1004700061D0FE0EDB50FB0A4EE0070A4AE0060A96
:1004800042E0040A31E0030A12E0020A48E10E0EDB
:10049000E66EE66A0001170E6A6F0F0E6B6F17DBD0
:1004A000E552E5520001010E636FE66836D06351F4
:1004B00013E00D0EE66EE66A0001090E6A6F0F0E7C
:1004C0006B6F05DBE552E552FD0EE66E6BDAE55229
:1004D0000001010E626F2ED00E0EE66EE66A00017C
:1004E000FA0E6A6F0E0E22D00D0EE66EE66A00015D
:1004F000EC0E6A6F0E0E6B6FEADAE552E552000100
:10050000636BFE0E09D068C0E6FF69C0E6FF82D9C2
:100510000FD0FC0E01D0FB0EE66E44DA0AD0120EAC
:10052000E66EE66A0001730E6A6F0F0E6B6FCFDA2C
:10053000E552E552060EE15C02E2E16AE552E16E47
:10054000E552E7CFD9FF1200D9CFE6FFE1CFD9FFBF
:10055000020EE126DE6ADD6AFD0EDBCF68F0FE0EDC
:10056000DBCF69F0FD0EDBCF14F0FE0EDBCF15F014
:10057000153434E214500008000E15542FE2FD0E1D
:10058000DBCF14F0FE0EDBCF15F0153404E214506F
:100590000A08000E155402E3010E5AD0FD0EDBCFFF
:1005A00014F0FE0EDBCF15F0153404E214501408DD
:1005B000000E155402E3020E4BD0FD0EDBCF14F0FB
:1005C000FE0EDBCF15F0153404E214503208000E95
:1005D000155402E3030E3CD0640E3AD0FD0EFE0E1D
:1005E000DBCF15F0800E151435E0FD0EDBCF14F0D7
:1005F000FE0EDBCF15F0D880155004E7F60E145C24
:10060000FF0E155802E3DE6820D0FD0EDBCF14F09C
:10061000FE0EDBCF15F0D880155004E7EC0E145C0D
:10062000FF0E155802E3FE0E0FD0FD0EDBCF14F0C7
:10063000FE0EDBCF15F0D880155004E7CE0E145C0B
:10064000FF0E155804E3FD0EDE6EDD6803D0640E68
:10065000DE6EDD6A0001625101E0CFD0FF0E655D04
:1006600002E0000E01D0010E166EFC0EDBCF14F07E
:10067000156A14BE15681450DF1806E11550DE52D5
:10068000DD1802E1000E01D0010E161401E1B4D014
:10069000656B0A0EE66EE66A0001E10E6A6F0E0EE9
:1006A0006B6F15DAE552E552FD0EDBCFE6FFFE0E6D
:1006B000DBCFE6FFAFD8E552E5520D0EE66EE66AF7
:1006C0000001D30E6A6F0E0E6B6F01DAE552E55230
:1006D000D9CFE9FFDACFEAFFFF0EEE1802E1FF0EF5
:1006E000ED1802E0000E01D0010E146ED9CFE9FF23
:1006F000DACFEAFF010EEE1801E1ED5002E0000E44
:1007000001D0010E141008E00F0EE66EE66A00013B
:10071000C30E6A6F0E0E6BD0D9CFE9FFDACFEAFFB6
:10072000FE0EEE1802E1FF0EED1802E0000E01D001
:10073000010E146ED9CFE9FFDACFEAFF020EEE18F0
:1007400001E1ED5002E0000E01D0010E141008E0AE
:100750000D0EE66EE66A0001B50E6A6F0E0E47D00A
:10076000D9CFE9FFDACFEAFFFD0EEE1802E1FF0E66
:10077000ED1802E0000E01D0010E146ED9CFE9FF92
:10078000DACFEAFF030EEE1801E1ED5002E0000EB1
:1007900001D0010E141008E00B0EE66EE66A0001AF
:1007A000A90E6A6F0E0E23D0D9CFE9FFDACFEAFF88
:1007B000640EEE180AE1ED5008E10D0EE66EE66AF1
:1007C00000019B0E6A6F0E0E12D00001635108E00B
:1007D000170EE66EE66A0001830E6A6F0E0E07D0F2
:1007E000190EE66EE66A0001690E6A6F0E0E6B6FF7
:1007F0006ED9E552E55201D0652BDF50146E020E22
:10080000E15C02E2E16AE552E16E1450E552E7CFA5
:10081000D9FF1200D9CFE6FFE1CFD9FF050EE126BF
:100820002B0EDF6EDE52300EDD6EF36E020EF3CF56
:10083000DBFF300EF36E030EF3CFDBFF300EF36EF3
:10084000040EF3CFDBFFFD0EDBCF14F0FE0EDBCF8B
:1008500015F00001800E151412E02D0EDF6E0868F1
:100860000968FD0EDBCF0DF0FE0EDBCF0EF0E9ECDC
:1008700007F0FD0E06C0DBFFFE0E07C0DBFF300EEB
:10088000F36E040EF3CFDBFFFD0EDBCF14F0FE0E94
:10089000DBCF15F00A0E0D6E0E6A14C008F015C0FD
:1008A00009F0C3EC07F005C015F0300E0424E76E24
:1008B000030EE7CFDBFFFD0EDBCF14F0FE0EDBCF28
:1008C00015F00A0E0D6E0E6A14C008F015C009F07E
:1008D000C3EC07F008C014F009C015F00A0E0D6E45
:1008E0000E6AC3EC07F005C015F0300E0424E76E65
:1008F000020EE7CFDBFFFD0EDBCF14F0FE0EDBCFE9
:1009000015F0640E0D6E0E6A14C008F015C009F0E3
:10091000C3EC07F008C014F009C015F00A0E0D6E04
:100920000E6AC3EC07F004C014F005C015F0300ED9
:100930000424E76E010EE7CFDBFF100EE66EE66AD9
:100940000001580E6A6F0E0E6B6FC1D8E552E5526A
:10095000DFCFE6FFF5D8E552010EDBCFE6FFF0D89A
:10096000E552020EDBCFE6FFEBD8E5522E0EE66E27
:10097000E7D8E552030EDBCFE6FFE2D8E552040EDE
:10098000DBCFE6FFDDD8E552250EE66ED9D8E5527D
:10099000050EE15C02E2E16AE552E16EE552E7CF65
:1009A000D9FF1200D9CFE6FFE1CFD9FF54D81BD829
:1009B000280EE66E99EC08F0E552500EE66E3DD832
:1009C000E55209D8FE0EDBCFE6FF37D8E552E552F7
:1009D000E7CFD9FF1200040EC714146E1F0EC51402
:1009E0001410F9E11200C5809EA6FED79E96120053
:1009F000F2DFC5821200EFDFC5841200D9CFE6FF17
:100A0000E1CFD9FFE652E7DFC5869EA6FED79E96C8
:100A1000C7A0FED7C790C950DF6EFE0EDB5002E1C3
:100A2000C59A01D0C58AC5889EA6FED79E96DF507E
:100A3000E552E552E7CFD9FF1200D9CFE6FFE1CF6B
:100A4000D9FFFE0EDB50C96E9EA6FED79E96E552DC
:100A5000E7CFD9FF12008F0ED3147009D36E0F01A8
:100A60003A6B94869488280EC66EC56AC70EC86E07
:100A7000C76A12000E0EE66EE66A0001490E6A6F42
:100A80000E0E6B6F24D8E552E552190EE66EE66A3B
:100A900000012F0E6A6F0E0E6B6F19D8E552E552EA
:100AA000170EE66EE66A0001170E6A6F0E0E6B6F88
:100AB0000ED8E552E552180EE66EE66A0001FE0E0B
:100AC0006A6F0D0E6B6F03D8E552E5521200D9CF55
:100AD000E6FFE1CFD9FF020EE126DE6ADD6ADECF56
:100AE00014F0DDCF15F0FD0EDBCF16F0FE0EDBCFE0
:100AF00017F015501718E8AE02D0173404D016506E
:100B0000145C1750155812E2DE5000016A25F66E8B
:100B1000DD506B210F01F76E0800F550E66E10D81E
:100B2000E552DF2A010EDBE3DB2AD9D7020EE15CB6
:100B300002E2E16AE552E16EE552E7CFD9FF120029
:100B4000D9CFE6FFE1CFD9FFACA2FED7FE0EDB5036
:100B5000AD6EE552E7CFD9FF1200D9CFE6FFE1CF66
:100B6000D9FF020EE126829082808296070EDE6E09
:100B7000DD6ADECF14F0DDCF15F0800E151415E11F
:100B8000FE0EDB50010BE8B0808AE8A0809A8286D6
:100B90008296FE0EDB407F0BE76EFE0EE7CFDBFF9B
:100BA000DF06010EE6E2DB06E4D7020EE15C02E2BC
:100BB000E16AE552E16EE552E7CFD9FF12009EAA45
:100BC000FED7AE501200948E948C8F0ED314700901
:100BD000D36EAC98AC9AAC84AB8EAB9CAB88B88629
:100BE000B88AB888A00EAF6E010EB06ED09EF28C9F
:100BF000F28E9D8A9F9A9D98AC8A12000F01386BE5
:100C0000100E926E3A6B946A948E948C12008096B9
:100C10008292809212008282809680821200808668
:100C2000828280821200D9CFE6FFE1CFD9FFE6525F
:100C3000F6DF8290828082828082FE0EDBCFE6FF2A
:100C4000A9D8E552809624D8DF6E8086E8DFDF5091
:100C5000E552E552E7CFD9FF1200D9CFE6FFE1CF49
:100C6000D9FFDDDF808C829082808086FD0EDBCF15
:100C7000E6FF90D8E552FE0EDBCFE6FF5BD8E552EB
:100C8000809282928282CBDFE552E7CFD9FF1200B9
:100C9000D9CFE6FFE1CFD9FF050EE126809C808801
:100CA000808C8098819A010EDB6A020EDB6A010E4D
:100CB000DBCF14F0020EDBCF15F0D890155004E610
:100CC000080E145C000E155828E28050040B01E059
:100CD000010EDF12DF50E824DF6E818A030EDB6A2B
:100CE000040EDB6A030EDBCF14F0040EDBCF15F02D
:100CF000D890155004E6040E145C000E155806E258
:100D0000030EDB2A040EEEE3DB2AECD7819A010EF8
:100D1000DB2A020ECCE3DB2ACAD7DF50146E050EA5
:100D2000E15C02E2E16AE552E16E1450E552E7CF80
:100D3000D9FF1200D9CFE6FFE1CFD9FF040EE1269B
:100D4000819A070EDE6EDD6ADECF14F0DDCF15F07E
:100D5000800E151415E1FE0EDB50010BE8B0808A01
:100D6000E8A0809A818A819AFE0EDB407F0BE76EB5
:100D7000FE0EE7CFDBFFDF06010EE6E2DB06E4D77F
:100D8000040EE15C02E2E16AE552E16EE552E7CF72
:100D9000D9FF1200D9CFE6FFE1CFD9FF050EE1263A
:100DA0008196070EDE6EDD6ADECF14F0DDCF15F022
:100DB000800E15141AE1FE0EDB50010BE76E040ED7
:100DC000E7CFDBFFDB50E8B08180E8A0819081862F
:100DD0008196FE0EDB407F0BE76EFE0EE7CFDBFF5A
:100DE000DF06010EE1E2DB06DFD7050EE15C02E281
:0E0DF000E16AE552E16EE552E7CFD9FF12004D
:020DFE00202DA6
:100E00002054797065203320746F2073746F7020C4
:100E10006D6F746F720A00202D2054797065203236
:100E200020746F2073657420706F696E740A0020DF
:100E30002D2054797065203120746F207374617295
:100E400074206D6F746F720A000A55736572204DBD
:100E5000616E75616C3A0A000A54686520457272C9
:100E60006F72206973203A20004E554C4C202D2083
:100E70004D4F544F522049532044495341424C4511
:100E8000440A004E554C4C202D204D4F544F5220BB
:100E9000495320535441424C450A002D31202D2006
:100EA00044414E474552210A0030202D20534556DB
:100EB0004552450A0031202D204D4F4445524154A2
:100EC000450A0032202D204F4620434F4E434552C5
:100ED0004E0A000A416C61726D204C4556454C200B
:100EE000000A5761726E696E673A20000A4D6F748E
:100EF0006F722073746F70730A000A4D6F746F7293
:100F0000206973204F46460A000A53657420706FAB
:100F1000696E74203A20000A4D6F746F72207374EA
:100F2000617274730A000A546865207370656564A1
:100F30002063616E6E6F74206265206772656174F4
:100F40006572207468616E203130302E00536574F4
:100F500020706F696E74203A20000A4572726F72B9
:100F60003A20696E76616C69642073796E74617879
:100F70002E0A000A4E6F207375636820436F6D6DF3
:060F8000616E64210A000D
:0A0F8600006A0EAECCEF07F00D6C10
:100F90000E1EE86A0E22001E09AED4EF07F0086CA0
:100FA000091EE86A0922001E65EC08F009BEE4EF9C
:100FB00007F000AE000C086C091EE86A0922046CF8
:100FC000051EE86A0522000C00BEDBEF07F0018871
:100FD000FF0C09C013F008C012F008500D02F4CF46
:100FE00007F0F3CF06F009500E02F4CF09F0F3CF6B
:100FF00008F00D02F3500726F4500822E86A09228F
:1010000012500E02F3500726F4500822E86A092213
:101010000EAE0FEF08F01250085E1350095A13AECF
:0C102000000C0D50085E0E50095A000C28
:04102C001E0EF66E30
:10103000000EF76E000EF86E00010900F550716F9A
:101040000900F550726F03E1716701D03DD00900CE
:10105000F5506C6F0900F5506D6F0900F5506E6F1B
:1010600009000900F550E96E0900F550EA6E090023
:1010700009000900F5506F6F0900F550706F090005
:101080000900F6CF73F0F7CF74F0F8CF75F06CC0AD
:10109000F6FF6DC0F7FF6EC0F8FF00016F5302E16D
:1010A000705307E00900F550EE6E6F07F8E2700725
:1010B000F9D773C0F6FF74C0F7FF75C0F8FF0001E1
:0A10C0007107000E725BBFD712002B
:0610CA00056A046A100E25
:1010D000E76ED89008360936043605360D50045CA4
:1010E0000E50055805E30D50045E0E50055A082AAF
:0610F000E72EF0D712000C
:0A10F600000EF36E00EE00F0060E8F
:1011000001D81200EA6002D0EE6AFCD7F350E96021
:061110001200EE6AFCD79C
:0A11160015EE00F025EE00F0F86A77
:10112000019C16EC08F0FEEC05F0CAEC00F0FBD7D1
:021130001200AB
:0E113200FF0EE350E84E1200000000D000D087
:0811400000D0E82EFAD71200DE
:020000040030CA
:0100010029D5
:0100020009F4
:010003003CC0
:010006008079
:010008000FE8
:01000900C036
:01000A000FE6
:01000B00E014
:01000C000FE4
:01000D0040B2
:00000001FF
