:020000040000FA
:060000009DEF05F0120067
:020006000000F8
:060008000FEF00F01200F2
:06001800CAEF00F0120027
:02001E00DACF37
:10002000E4FFE2CFDAFFE9CFE4FFEACFE4FFF6CF67
:10003000E4FFF7CFE4FFF5CFE4FFF3CFE4FFF4CF25
:10004000E4FFFACFE4FF00EE00F0140EE80403E34F
:10005000EECFE4FFFBD700EE14F00D0EE80403E34F
:10006000EECFE4FFFBD7E652D9CFE6FFE1CFD9FFD1
:10007000050EE1269EA661D0C6989E96C650400BFE
:1000800003E1C650800B05E0C950DF6EC69CC69EDA
:10009000C688C750200B14E1C750040B11E1C950AA
:1000A000DF6EC7B0FED7C6889EA6FED79E96010E0D
:1000B000C9CFDBFFDBCFE6FFA4D8E552C6883DD031
:1000C000C750200B3AE1C750040B37E0C950DF6E30
:1000D00080800A6A0B6AC80E0C6E420E0D6E66C0F6
:1000E00005F067C006F068C007F069C008F01CECB6
:1000F00004F089EC04F0030E06C0DBFF040E07C019
:10010000DBFF020EDB6ADBCFE7FF030EDB50E712FB
:10011000020EE7CFDBFFDB50C96EC6889EA6FED776
:100120009E96030EDBCF21F0040EDBCF22F022C01F
:1001300021F0226AC5ACE5D78090050EE15C02E2B1
:10014000E16AE552E16EE552E7CFD9FFE55200EEF4
:1001500020F00D0EE80403E3E5CFEDFFFBD700EE42
:1001600013F0140EE80403E3E5CFEDFFFBD7E5CF72
:10017000FAFFE5CFF4FFE5CFF3FFE5CFF5FFE5CFDD
:10018000F7FFE5CFF6FFE5CFEAFFE5CFE9FFE5CFE3
:10019000DAFF1100D8CFE4FFE0CFE4FFE46EDACF5E
:1001A000E4FFE652E552E5CFDAFFE550E5CFE0FFA8
:1001B000E5CFD8FF1000D9CFE6FFE1CFD9FF070E7A
:1001C000E1260F0138919290809089D990DA65D814
:1001D000E66AE66AE66AE66A8CD9E552E552E552D5
:1001E000E55273D80001606B616BAA0EE66E550E86
:1001F000E66EA3D8E552E552AA0EE66E84D8E55223
:10020000F4D7D9CFE6FFE1CFD9FF000161511FE05C
:10021000FE0EDBCF18F018C007F0A3EC03F005C00A
:1002200014F006C015F007C016F008C017F005C09E
:10023000E6FF06C0E6FF07C0E6FF08C0E6FF59D9A3
:10024000E552E552E552E5520001616B22D0FE0E07
:10025000DB50FB0A1DE0070A19E0010A12E0030A5D
:1002600005E0010A16E1010E606F13D0606BE66ACB
:10027000E66AE66AE66A3DD9E552E552E552E5529C
:1002800008D0605106E0010E616F03D015DA01D08D
:1002900021DAE552E7CFD9FF12008F0ED31470098F
:1002A000D36E0F013A973A9994869488800EC76E60
:1002B000500EC86E360EC66E010EC56ED09EF28C04
:1002C000F28E9F969E969D8612000F013881928035
:1002D000F80EC0140209C06E830EC2140009C26E6B
:1002E000C08EC70EC0140809C06EC280120080966E
:1002F0008292809212008282809680821200808692
:10030000828280821200D9CFE6FFE1CFD9FFE65288
:10031000F6DF8290828082828082FE0EDBCFE6FF53
:10032000A9D8E552809624D8DF6E8086E8DFDF50BA
:10033000E552E552E7CFD9FF1200D9CFE6FFE1CF72
:10034000D9FFDDDF808C829082808086FD0EDBCF3E
:10035000E6FF90D8E552FE0EDBCFE6FF5BD8E55214
:10036000809282928282CBDFE552E7CFD9FF1200E2
:10037000D9CFE6FFE1CFD9FF050EE126809C80882A
:10038000808C8098819A010EDB6A020EDB6A010E76
:10039000DBCF14F0020EDBCF15F0D890155004E639
:1003A000080E145C000E155828E28050040B01E082
:1003B000010EDF12DF50E824DF6E818A030EDB6A54
:1003C000040EDB6A030EDBCF14F0040EDBCF15F056
:1003D000D890155004E6040E145C000E155806E281
:1003E000030EDB2A040EEEE3DB2AECD7819A010E22
:1003F000DB2A020ECCE3DB2ACAD7DF50146E050ECF
:10040000E15C02E2E16AE552E16E1450E552E7CFA9
:10041000D9FF1200D9CFE6FFE1CFD9FF040EE126C4
:10042000819A070EDE6EDD6ADECF14F0DDCF15F0A7
:10043000800E151415E1FE0EDB50010BE8B0808A2A
:10044000E8A0809A818A819AFE0EDB407F0BE76EDE
:10045000FE0EE7CFDBFFDF06010EE6E2DB06E4D7A8
:10046000040EE15C02E2E16AE552E16EE552E7CF9B
:10047000D9FF1200D9CFE6FFE1CFD9FF050EE12663
:100480008196070EDE6EDD6ADECF14F0DDCF15F04B
:10049000800E15141AE1FE0EDB50010BE76E040E00
:1004A000E7CFDBFFDB50E8B08180E8A08190818658
:1004B0008196FE0EDB407F0BE76EFE0EE7CFDBFF83
:1004C000DF06010EE1E2DB06DFD7050EE15C02E2AA
:1004D000E16AE552E16EE552E7CFD9FF12000F0164
:1004E000386B140E926E396B936A3A6B946A808CF7
:1004F0001200D9CFE6FFE1CFD9FF020EE126270E89
:10050000BB6E050EBA6E94840F013A958F0ED3140C
:100510007009D36EFB0EDBCF18F0FC0EDBCF19F0A9
:10052000FD0EDBCF1AF0FE0EDBCF1BF0BB28040D57
:10053000F3CF20F0F3CF07F0A3EC03F005C01CF0DD
:1005400006C01DF007C01EF008C01FF005C00AF06D
:1005500006C00BF007C00CF008C00DF018C005F085
:1005600019C006F01AC007F01BC008F01CEC04F01C
:1005700005C014F006C015F007C016F008C017F04B
:100580000A6A0B6AC80E0C6E420E0D6EC9EC03F0BF
:1005900089EC04F006C0DEFF07C0DDFFDECF14F0FB
:1005A000DDCF15F0D89015321432D89015321432B0
:1005B0001450BE6EDECF14F0DDCF15F0030E14160E
:1005C000000E1516040ED89014361536E804FBE11B
:1005D0000C0E1424BD6E9E929494000EDFCF06F094
:1005E000010EDBCF07F0B6EC03F005C062F006C0E9
:1005F00063F007C064F008C065F0020EE15C02E23F
:10060000E16AE552E16EE552E7CFD9FF1200D9CF9A
:10061000E6FFE1CFD9FF060EE126270EBB6E050EE1
:10062000BA6E94840F013A958F0ED3147009D36E6D
:10063000FE0EDB500EE0FF0EBE5C09E1BE6ABD504F
:10064000300BE842E842E842E842010F0CD0BE28F5
:1006500016D0BE5013E1BE68BD50300BE842E842F0
:10066000E842E842FF0F030BF36EF346F346F3460E
:10067000F346CF0EBD14F310BD6E02D0BE04BE6EA5
:100680009E929494000EDFCF06F0010EDBCF07F0B0
:10069000B6EC03F005C062F006C063F007C064F07A
:1006A00008C065F0060EE15C02E2E16AE552E16E27
:1006B000E552E7CFD9FF120062C0E6FF63C0E6FF54
:1006C00064C0E6FF65C0E6FF010EE66EA0DF050E22
:1006D000E15E120062C0E6FF63C0E6FF64C0E6FFB1
:1006E00065C0E6FFE66A93DF050EE15E1200948EB8
:1006F000948C8F0ED3147009D36EAC98AC9AAC84E2
:10070000AB8EAB9CAB88B886B88AB888A00EAF6EAB
:10071000010EB06ED09EF28CF28E9D8A9F9A9D98AB
:10072000AC8A1200D9CFE6FFE1CFD9FFACA2FED749
:10073000FE0EDB50AD6EE552E7CFD9FF12009EAA48
:06074000FED7AE501200CE
:0A0746000F9E05D00F9E07AE02D0F3
:10075000076C0F8E07C001F0006A136A126A860EDA
:10076000026E036AD4EF04F00F9E08D00F9E07AE0E
:1007700005D0066C071EE86A07220F8E07C001F03D
:1007800006C000F0136A126A8E0E026E036AD4EF7E
:1007900004F00F6A10EC05F028EC05F00FB6B8EF86
:1007A00004F00FA205D00FBAB8EF04F0BFEF04F0C9
:1007B0000FBACBEF04F00FA005D00FB8B8EF04F0DC
:1007C000CBEF04F00FB8BFEF04F0036A7F0E0824EC
:1007D000026EE86A03220D50025EE86A035A1A0E9E
:1007E000106E086A126A136A006A016A0A50055E8E
:1007F0000B50065A0C50075A000E085A09E70A50C7
:1008000005260B5006220C500722000E082201D0AC
:10081000128AD8900536063607360836D890123632
:10082000133600360136102EE1D70750061005109A
:10083000D8A4128AD4EF04F00F6A10EC05F028EC6B
:1008400005F00FB6B8EF04F00FA205D00FB8B8EF5F
:1008500004F0BFEF04F00FAA05D00FB0B8EF04F01A
:10086000BFEF04F00FB002D00FA802D0CBEF04F01E
:10087000036A0D500824026EE86A03227E0E025EAF
:10088000E86A035A126A136A006A016A0C50070286
:10089000F4CF01F0F3CF00F00B500702F350132612
:1008A000F4500022000E01220C500602F3501326D1
:1008B000F4500022000E01220A500702F3501226C3
:1008C000F4501322000E002201220B500602F350B6
:1008D0001226F4501322000E002201220C500502B1
:1008E000F3501226F4501322000E002201220A5067
:1008F0000602F4501226000E1322002201220B5091
:100900000502F4501226000E132200220122D4EF19
:1009100004F00F6A10EC05F00FB693EF04F00FA28D
:100920000ED00FB405D07F0E076EFF0E066E1FD0DF
:10093000800E076E066A1BD0076A066A18D00FB0D1
:10094000FBD78F0E0860EDD77E0E0864F5D78E0EAC
:10095000085C05E0D89007320632082AF8D70FA4C1
:1009600006D0066C071EE86A072207AEE5D712001C
:100970007F0E086EFF0E076E066E056E12007F0E6C
:100980000FBEFF0E086E02D07F0E086E800E076E3F
:10099000066A056AF3D70FAE04D0800E086E076AA8
:1009A000F7D7086A076AF4D7015000101310121025
:1009B000F8E003BEF0D701BE0CD002500310EBE00C
:1009C000D89012361336003601360206D8A0030638
:1009D000F2D70350D4E10228D2E012AE11D07F0E3C
:1009E000121402E113A00CD0132AE86A002201229B
:1009F00007E3D880013200321332022A0228BFE016
:100A00000250C9E013C005F000C006F00134076EC3
:100A10000230086E0732089E0FBE088EBEEF04F04B
:100A20000736083602E30F840F7E06E10F80086A5E
:100A3000076A066A056A1200082803E0D8800732B0
:100A40001200D890073202E10F8212000F861200C6
:100A50000C360D3602E30F8C0F7E06E10F880D6A0F
:100A60000C6A0B6A0A6A12000D2803E0D8800C3267
:0C0A70001200D8900C32EAE10F8A12004C
:040A7C00060EF66EFE
:100A8000000EF76E000EF86E00010900F5506F6F52
:100A90000900F550706F03E16F6701D03DD0090088
:100AA000F5506A6F0900F5506B6F0900F5506C6FD7
:100AB00009000900F550E96E0900F550EA6E0900D9
:100AC00009000900F5506D6F0900F5506E6F0900BF
:100AD0000900F6CF71F0F7CF72F0F8CF73F06AC06B
:100AE000F6FF6BC0F7FF6CC0F8FF00016D5302E129
:100AF0006E5307E00900F550EE6E6D07F8E26E07E1
:100B0000F9D771C0F6FF72C0F7FF73C0F8FF00019C
:0A0B10006F07000E705BBFD71200E4
:060B1A00000EF36E00EE78
:100B200000F0060E01D81200EA6002D0EE6AFCD78F
:0A0B3000F350E9601200EE6AFCD7F2
:060B3A0015EE00F025EEAF
:100B400000F0F86A0F9C3EEC05F06FEC02F0DBEC75
:060B500000F0FBD71200CB
:020000040030CA
:0100010029D5
:0100020009F4
:010003003CC0
:010006008079
:010008000FE8
:01000900C036
:01000A000FE6
:01000B00E014
:01000C000FE4
:01000D0040B2
:00000001FF
